:020000040000FA
:0400000A9900C0DEBB
:10000000004000200B010000C1000000AD0800000E
:1000100000000000000000000000000000000000E0
:10002000000000000000000000000000C50000000B
:100030000000000000000000C7000000C900000030
:10004000CB000000CD000000CF000000D100000078
:10005000D3000000D5000000D7000000D900000048
:10006000DB000000DD000000DF000000E100000018
:10007000E3000000E5000000E7000000E9000000E8
:10008000EB000000ED000000EF000000F1000000B8
:10009000F3000000F5000000F7000000F900000088
:1000A000FB000000FD000000FF0000000101000057
:1000B0000301000005010000070100000901000024
:1000C000FEE7FEE7FEE7FEE7FEE7FEE7FEE7FEE708
:1000D000FEE7FEE7FEE7FEE7FEE7FEE7FEE7FEE7F8
:1000E000FEE7FEE7FEE7FEE7FEE7FEE7FEE7FEE7E8
:1000F000FEE7FEE7FEE7FEE7FEE7FEE7FEE7FEE7D8
:10010000FEE7FEE7FEE7FEE7FEE70348854600F070
:1001100001F803E0704700000040002035493648F0
:100120000A1A02D0072291438D46344934480A1AEC
:1001300006D00722914381F30988022282F31488B2
:1001400030483149314A00F043F831483149324AA8
:1001500000F03EF831483249324A00F039F832486E
:100160003249334A00F034F832483349334A00F018
:100170002FF833483349344A00F02AF833483449D9
:10018000344A00F025F834483449002200F02BF8B6
:1001900033483449002200F026F833483349091A1D
:1001A000082903DB00220260043001601F48204957
:1001B000884205D00268043003B4904703BCF7E7D7
:1001C00000208646EC4600200021294A9047FEE7A1
:1001D000884207D0521A05D0037801300B700131E4
:1001E000013AF9D17047884202D002700130FAE733
:1001F0007047000000400020003C0020004000202C
:10020000004000209033010000000020000000208A
:100210007402000074020000B40900009033010071
:100220000000002000000020B4090000B409000014
:10023000B4090000B4090000B4090000B4090000CA
:10024000B4090000B40900009033010090330100AC
:10025000BC000020BC00002000000020BC000020EA
:10026000BC000020BC000020C0000020C004002012
:04027000C5050000C0
:100274008023DA0580235B000021D1508023DB0535
:1002840001221A60C0468023DA0580235B00D3581C
:10029400002BF8D08023DA0580235B000021D150A5
:1002A400A023DB050C49E02212025A50A023DA05F0
:1002B400A123DB000949D150A023DA05A323DB00E5
:1002C400E0210902D150A023DA05A323DB0003496E
:1002D400D150C0467047C0460C050000F01F000016
:1002E400094AA223DB000921D150074AA123DB00DC
:1002F4000021D150044A054B0021D150024B012268
:100304001A60C0467047C0460090004004050000D3
:1003140084B001900091A023DB051A49E022120267
:100324005A50A023DA05A123DB001749D1501749FD
:10033400019A13009B009B18009A9B18DB005B58E2
:1003440003931249019A13009B009B18009A9B186F
:10035400DB00CB1804331B680293039B0D33A022EC
:10036400D20501219940A123DB00D150029B1A1D23
:10037400A023DB05012191400A0002495A50C046DE
:1003840004B070470C050000F01F0000B4320100F7
:1003940082B002006B4607331A70A023DB052A499A
:1003A400E02212025A50A023DA05A123DB002749D8
:1003B400D1506B4607331B78032B15D01CDC012B63
:1003C40002D0022B08D017E0A023DA05A123DB001A
:1003D40080218901D15025E0A023DA05A123DB0087
:1003E4008021C901D1501DE0A023DA05A123DB003F
:1003F40080210902D15015E0A023DA05A123DB00F6
:1004040080218901D150A023DA05A123DB008021BA
:10041400C901D150A023DA05A123DB008021090200
:10042400D150C046A023DB05074A10219950A023D0
:10043400DB05054A20219950A023DB05024A40210F
:100444009950C04602B070470C050000F01F000030
:10045400A023DB05114A01219950A023DB050F4994
:100464008022D2055A500E4AA123DB000021D1502C
:100474000B4A0C4B1E21D15009490B4ACD23DB04F6
:100484008B50074AB123DB006021D150044AA023DA
:10049400DB000521D150C0467047C0461C05000052
:1004A400003000400C0500002405000086B00190D7
:1004B4000023059300230493002303933F4B01225D
:1004C400DA613E4A84235B000021D1503B4B012278
:1004D4001A60C046394A84235B00D358002BF9D0F4
:1004E400364A84235B000021D150344AA323DB0025
:1004F400D3580393314B01221A62059B01330593B0
:10050400039B012B3ADDC0462C4A84235B00D3585D
:10051400002BF9D0294A84235B000021D150274ABB
:10052400A323DB00D358DAB2019B1A70234B0122B8
:100534001A62224B01225A61C046204A84235B007E
:10054400D358002BF9D01D4A84235B000021D150DD
:100554001A4AA323DB00D258019B0133D2B21A708A
:10056400C046164A82235B00D358002BF9D0134AA5
:1005740082235B000021D15001231CE00F4B012298
:100584005A61C0460D4A84235B00D358002BF9D02E
:100594000A4A84235B000021D150084AA323DB00CC
:1005A400D3580393019B00221A70019B013300224C
:1005B4001A7001235B42180006B0704700300040F7
:1005C40000B595B000231393FFF752FE00210120DC
:1005D400FFF79EFEFFF73CFFFFF782FEA023DA053C
:1005E400A323DB0080214903D150A023DA05A123F2
:1005F400DB0080214903D1509E4B01221A60602305
:1006040010939D4B00221A609C4B00221A60002319
:1006140012930023119300210020FFF779FE984BD9
:100624000193C046019B013B0193002BFADC00219E
:100634000120FFF76DFE924B0193C046019B013BE5
:100644000193002BFADC00210220FFF761FE8C4BA2
:100654000193C046019B013B0193002BFADC00216E
:100664000320FFF755FE864B0193C046019B013BD7
:100674000193002BFADC00210420FFF749FEC04659
:10068400E7E07E4B1B68042B00D9E2E09A007D4B27
:10069400D3181B689F4600231B061A0001231B0462
:1006A4001900FF231B040B401A4328231B021B04BD
:1006B4001B0C1343E62213430F930F9B283B139306
:1006C4006E4B01221A6040231293C2E06E4B01224A
:1006D4009A6016E06D4A119BD3181B786A4A190078
:1006E4006B4BD150C046684A8E235B00D358002B15
:1006F400F9D0654A8E235B000021D150119B013350
:100704001193119A129B9A42E4D35F4B01225A61CE
:100714005A4B02221A609CE004210420FFF7F8FDE2
:100724005C4B1800FFF7C2FE031E00DC91E0594B3E
:100734001B781A00574B5B781B021B041B0C1A43D3
:10074400554B1A60544B1B68544A934200D080E0C6
:100754004A4B03221A607CE00120FFF719FE4D4B3F
:100764001800FFF7A3FE031E00DC72E0494B1B7860
:100774001A00484B5B781B021B041B0C1A43464BA4
:100784001A60454B1B68002B1ED100210020FFF787
:10079400BFFD404B1800FFF789FE3E4B1B781A0043
:1007A4003C4B5B781B021B041B0C1A433A4B1A602C
:1007B400394B1B68012B03D10420FFF7E9FD02E04C
:1007C4000220FFF7E5FDFEE7334B1B681A00129B7E
:1007D4009B181293294B04221A603AE00320FFF776
:1007E400D7FD2F4B00221A60119A129B9A4226D0F1
:1007F400254B01229A601BE0244A119BD3181B78D5
:10080400214A1900224BD150C0461F4A8E235B0057
:10081400D358002BF9D01C4A8E235B000021D15001
:10082400119B013311931E4B1B685A1C1C4B1A60FD
:10083400119A129B9A42DFD3134B01225A61184B2F
:100844001B681A00139B9B1A13930C4B03221A6008
:10085400C046084B1B68012B00D112E7032103207B
:10086400FFF756FDA023DB050E49802252035A50A0
:10087400FEE7C046680000207400002070000020DD
:1008840040420F007C33010000300040B4090000F6
:100894001C050000040000206C00002011FF000073
:1008A400000000200C05000004207146084202D11B
:1008B400EFF3088001E0EFF30980014A10470000DC
:1008C400C908000082B001902F4B1B882F4B1A6877
:1008D4002F4B1A622F4B1B78D9B22D4B24229954DB
:1008E4002D4B1B78DBB21A00294B9A622B4B1A68EA
:1008F400274BDA622A4B1B889AB2254B1A86224B65
:100904001B889BB21A00224B5A63264B1B889BB24E
:100914001A001F4B9A63244B1B889BB21A001C4B72
:10092400DA63224B00221A60C046204B1B68002B5E
:10093400FBD0019B1A68164B1A60019B5A68144B32
:100944005A60019B9A68124B9A60019BDA68104BBB
:10095400DA60019B1A690E4B1A61019B5A690C4BB0
:100964005A61019B9A690A4B9A61019BDA69084BA7
:10097400DA610E4B00221A60C0460C4B1B68002B38
:10098400FBD002B07047C0462CED00E024ED00E03F
:100994007C00002028ED00E029ED00E038ED00E0C7
:1009A4002AED00E030ED00E03CED00E078000020AE
:1009B40055555555555555554D43555048434D4539
:1009C400424C3242E628010041E006C3BCEC7F47BA
:1009D400A6809473BC9D7273201500000A00020067
:1009E4000000000000000000000000000000000003
:1009F40040280100000000008602040000001018D6
:100A0400001418001818001C1800201800781A0088
:100A1400241800781A002818002C18003018003404
:100A24001800381800781A003C18004018004418C0
:100A3400004818004C1800501800541800581800AA
:100A44005C18006018006418006818006C180070C6
:100A54001800741800781800781A007C18008018A0
:100A6400008418008818008C18009018009418004E
:100A74009818009C1800781A00781A00781A00A0B8
:100A84001800A41800720200AC1800781A00B018FC
:100A9400007C0200781A00B81800BC1800C01800C6
:100AA400C41800C81800CC1800D01800D41800D8F6
:100AB4001800DC1800781A00E01800781A00E4180E
:100AC40000E81800EC1800F01800F41800F81800FA
:100AD400FC1800001900041900081900781A000C09
:100AE40019001019001419001819001C19002019F4
:100AF400002419002819002C1900781A0030190054
:100B0400341900381900781A003C190040190044BF
:100B140019004819004C19005019005419005819AB
:100B2400005C19006019006419006819006C190050
:100B34007019007419007819007C19008019008458
:100B440019008819008C190090190094190098193B
:100B5400009C1900A01900A41900A81900AC1900E0
:100B6400B01900B41900B81900BC1900C01900C4A8
:100B74001900C81900CC1900D01900D41900D819CB
:100B840000DC1900E01900E41900E81900EC190070
:100B9400F01900F41900F81900781A00781A00788E
:100BA4001A00781A00781A00781A00781A00781A4D
:100BB40000781A00781A00781A00781A00781A0057
:100BC400FC1900001A00041A00781A00781A007838
:100BD4001A00781A00081A000C1A00781A00101A61
:100BE40000141A00781A00781A00781A00781A008B
:100BF400781A00781A00181A001C1A00781A00785B
:100C04001A00781A00781A00781A00781A00201A44
:100C140000241A00281A002C1A00301A00341A0072
:100C2400381A003C1A00401A00441A00481A004CB2
:100C34001A00501A00541A00581A00781A00781A28
:100C440000781A00781A00781A00781A005C1A00E2
:100C5400601A00641A00681A006C1A00701A007492
:100C64001A00FFFFFFFFFFFFFFFFFFFFFFFFFFFF74
:100C7400FFFFFFFFFFFFFFFFFFFFFFFFFFFFFFFF80
:100C8400FFFFFFFFFFFFFFFFFFFFFFFFFFFFFFFF70
:100C9400FFFFFFFFFFFFFFFFFFFFFFFFFFFFFFFF60
:100CA400FFFFFFFFFFFFFFFFFFFFFFFFFFFFFFFF50
:100CB400FFFFFFFFFFFFFFFFFFFFFFFFFFFFFFFF40
:100CC400FFFFFFFFFFFFFFFFFFFFFFFFFFFFFFFF30
:100CD400FFFFFFFFFFFFFFFFFFFFFFFFFFFFFFFF20
:100CE400FFFFFFFFFFFFFFFFFFFFFFFFFFFFFFFF10
:100CF400FFFFFFFFFFFFFFFF00180000BF0204BF5C
:100D04000214BF0224BF0228BF022CBF023CBF0250
:100D140040BF0244BF0248BF0200C0020000000CF2
:100D2400180000BF0204BF0218BF0224BF0228BF7C
:100D3400022CBF023CBF0240BF0244BF0248BF02B4
:100D44000000000018000018000C180014BF02185E
:100D5400BF0200BF02060000FFFF00FFFFFF18BF35
:100D640002120000050000FFFFFF461D00FFFFFF09
:100D7400FF7F00FFFFFF28BF02060000828000FF04
:100D8400FFFF3CBF02060000010000FFFFFF44BF5D
:100D94000203000077770014BF02060000FF7FFF04
:100DA400FFFFFF5010AFA81804000000A0030400C8
:100DB40000005030AFB41804000000B81404000060
:100DC400006F17210EFF260E01880000000000208E
:100DD4000000E0020032000120200288140007070E
:100DE40001070000E003003AA03E210100200200B8
:100DF40037000020010020810F700100320F00072E
:100E04000000200000E00200320000020000003C6C
:100E14000D020000000040DA0000FEA001200000E6
:100E2400E0020032002020900188000006A1028820
:100E34008004780000EB1F0037E2844454A0B49986
:100E440005BAE2844454A0B49906BAE2844454A096
:100E5400B40006EB476FDEFD07B2AE0188636CE1B8
:100E640003003A0AD8010000EB0E0037606CE10879
:100E7400003A004DEB0A05E80200393420EC0AF090
:100E8400A08B05E9F9FF3E0400376168E1010032F7
:100E94000086EB0B000719C7BA1905BA0E04E00364
:100EA400003A0A00E0DBFF3A000006FE07B2AE0299
:100EB400888A0478F5FF370CD0A3E20F4D1C003963
:100EC400890278354DBA0A05E80200393420EC0A63
:100ED400F0A08B05E90F0032254DBA0A05E802009F
:100EE400393420EC0AF0A08B05E90800320C00E04C
:100EF40006003215CDBA0A05E80200393420EC0A9E
:100F0400F0A08B05E98984E854A0B40B00E0E2FF6B
:100F14003A0000069902BA055D788B05E9F7FF32BD
:100F2400C82ADE055D788B05E9F3FF320C00E0F199
:100F3400FF3219DDBAEEFF37B01504000000541675
:100F440004000000B814040000009A160400000015
:100F5400A01604000000741104000000E014040052
:100F64000000F40F04000000809FBE829FBE841F17
:100F7400780800FA04A8A90011800018A33E0032E2
:100F8400A311800001784202B2010220810F51387E
:100F9400003AB189800110A0B18988218980A41206
:100FA40021948F50040039B189800140A0B189880F
:100FB4000B0037318980835878318988628980149D
:100FC4000241848F50010039328988120020411275
:100FD40021910841D13424C1BF9F510525D1BF9F20
:100FE400813424E1BF9F5120B0F1BF9FE28A806722
:100FF4000161834078688257E4417983CF500C00C3
:101004003A8200E8E18A88E88F500F003AB189807B
:101014000170A0B189884112212183888113213173
:1010240083880700370001EBE28A880FF99782CFA3
:101034005002003A110020E18A88E50060E48F50F4
:1010440032003A0058A30C003AC08980F08A8848DC
:1010540000DE020032F00F20F08A88F48A808411C6
:1010640088508A8000F0A0508A882400370000E06D
:10107400220035F08A800000E00C003AC08980F03C
:101084008A884800DE020032F00F20F08A88F08A55
:1010940080801188508A8000F0A0508A881300371D
:1010A400E08980B080FB811188E08988018A80E230
:1010B4001321128140820F50010039E18988110007
:1010C40020801321108810508A800000A0508A8844
:1010D400F08A800000E9F08A88808B8001002190EA
:1010E400806001003A10C0A00080FA4F02784F01DE
:1010F400BE4F00BE00400600000541E00006C300EC
:10110400BCEC007F4700A68000947300BC9D007275
:1011140073000100003E7E00007C00FCFF006000C4
:1011240000CF05B0889FBE8A9FBE8C9FBE8E1F785D
:101134000005782083800000E002003A000D786901
:101144000237028021030020D28F9FE38F9F020485
:10115400BE8005EB2183801107781A01788001EBAA
:10116400E80F51E08F5954023E020601080037335C
:101174000037BF0037E500371A0137770137A70179
:1011840037D00137EB0137F00220800F574E02367B
:10119400020320E0FB2F0F0040721002000000E069
:1011A400FB2F0F00400006EB30417821C4B3814F80
:1011B4005111003A90409021C3B2C3C4B390C169A5
:1011C40083C070A0419002C16982C07008003A31A6
:1011D40083801101780000EB7610020000001D00EE
:1011E400200D0D780500370C06E8C10220810F564A
:1011F400E7FF3A8006EB0C01782183800000EB7650
:101204001002000000130020DE01378001EB80068D
:10121400EBF00220800F57D90136020320E0FB2FA8
:101224000F0040761002000000030320E2FB2F0FA2
:1012340001416000B8961202000000400D98510D63
:10124400981FA097AFA0978002B10180B1200D989C
:10125400310D981C00204C1598E0FB2F0F0040E83E
:101264000040020120C04A280E16020000000000BF
:10127400E0060032A0FE2F401598800020000D7873
:101284008C0178B50137E406453FA897CFA8975F4E
:10129400A997EFA997809EBE8296BE240120800064
:1012A400EB0801BEC0FA2F0F0040C011020000007D
:1012B4000000200000E0040032D02C21EF98978039
:1012C4008F50040032E0FD2F0F004074815714004A
:1012D400372A0290BA02904A0390DA03906F9097EB
:1012E400FF90970F99979F99970020E101A8E10239
:1012F400B0E103B8E1EFFF3190FE2F401598700084
:1013040020000D788C0178830678880137FFA89730
:10131400D08070F1AF9F820F50FBFF3A0100E0E9EB
:10132400003A4065210000E00D00322A0990BA0914
:10133400900204B00380B00D027831838020838052
:101344005416020000000000E002003C50FE2FFF93
:1013540000379B8B800B00E0120032008220028455
:10136400200001518000EB8016020000005030EF95
:101374005230EF0000EB908B883016020000002002
:1013840083808A13020000003083808A13020000E5
:10139400000000EB3015986011B8620D98730D9839
:1013A4000080EB1015988000201005982000200084
:1013B4000D783083801000E007003A31F12FC18F9F
:1013C4009F22002081F92F8F804008120200000024
:1013D4000B00E00100320060FE1A00906810B47047
:1013E4003EB1EA08900100404083886002200A0070
:1013F40040060B020000000006781300208006EB74
:101404000C00E035013A10F12FC08F9F220020819B
:10141400F92F8F804030838008120200000020835F
:10142400801007782C1598400020000D782A089029
:10143400BA0890430220830F50E08F5806003E40C4
:101444000220301598600020100598130020290010
:10145400376A0990FA0990E00F51E08F5906003A73
:101464008000203015983000201005981300201EAD
:101474000037F03D206830B4200120301598800FEB
:10148400570100363E1598BA1090000320808F5003
:101494000100363015983A13906132B8820F5283A6
:1014A4008F5A0300396A0890301598050037620096
:1014B400200500090283D8010053301598500020FC
:1014C4001005981300200100378001EB2A6090E892
:1014D4004F400B003A2A10902A0A90BA0A906103EE
:1014E400B8840F53858F5B0100360400788006EBC7
:1014F4008E0F50E5003A8207200200E021003230CE
:101504008380B00090908050E58F501C003621837A
:1015140080B10090810F510100360101782A1290A8
:10152400848050828F500300313A1190840F5110FF
:101534000036F3CF5001003A8100E94809DEF34F49
:101544005101003A0110B1048240241598C18F9FC3
:1015540022002081F92F8F8040081202000000131E
:1015640000203A11908006EB820F57BD00392A10F3
:10157400900200502015982A0E90BA0E9021838074
:10158400E0FB2F0F0040761002000000000656E03A
:10159400865E2C0D983D0D98BA1190E2FB2F0F0139
:1015A400414A0890DA0890961202000000400D9813
:1015B400510D981A0090000D78E30F50A0003A7C6A
:1015C40000453A1190E1FB2F8F8040741502000012
:1015D40000FA58903A609000C070960032B0FE2F26
:1015E4002400370B00E00100320060FE0003EB60D2
:1015F40022B8BA1190E2FB2F0F01410A10909A1001
:1016040090BE09020000000006BEE4F92F0F02425A
:10161400BA1190E2FB2F0F01410A10909A1090E644
:101624000B020000000C15981D1598BA10906A0959
:1016340090FA0990010151E08159620D98730D9857
:10164400310020010D780000E007003D80FE2F40AE
:101654001598700020000D781300208306786C0024
:10166400370000E068003270FE2F40159813002008
:10167400830678650037F03D206830B44A0990DA73
:101684000990C0F12D411422800F51818F591E0001
:101694003AD02C21E09F9F2A0090BA00904A0190F2
:1016A400DA0190E0979FF1979F829F9F939F9F5F9E
:1016B400A897EFA8977FA9978FB197A09F9FB19FF5
:1016C4009FC29F9FD39F9F0003EBD5EA2D0002EB9F
:1016D400230120C2FA2F0F01410800BEBE090200F7
:1016E4000000DE150200000002003760FE2F4015E6
:1016F400986430EF6830EF800020000D784A109035
:10170400CF80DEC000DD000020D08F9FE18F9F429C
:101714000020A1F92F8F804030838008120200003E
:1017240000A28280B38280308380501202000000C5
:10173400A00F205183800008B84014020000001359
:1017440000208306781F00378001EB8006EB0E0033
:10175400E01B00322A0990BA09906172B8820F52D4
:10176400838F5A0500390207780000EB76100200D7
:1017740000006430EF0E01782183800000EB7610C6
:10178400020000002A0890BA08900E0050E0805829
:10179400200D98310D981300208006EB02003713BA
:1017A4000020830678F3B79F68140200000000024B
:1017B400BEFFB1970300E0020032000D98110D98AE
:1017C4000A09909A099002015283815A6A0090FA98
:1017D4000090800F51818F59210036C0FE2F401593
:1017E400981A80E9E30F5018003E000020C1FE2F34
:1017F400D08F9FE18F9F420020A1F92F8F8040302E
:101804008380F4B79F85BF9F081202000000A28264
:1018140080B382803083805012020000000081EB8C
:101824002183800000EB7610020000008FBA977FBE
:10183400B297040D98150D98000DEB6430EF2083DA
:10184400800000E00300328B8676ADFD3A09003754
:101854000B00E00600326A0190FA01903083805058
:1018640012020000000000FE000DEB00F0A70000D3
:10187400EA0000E94F00DE0100370000EB4F077873
:101884004F06BE4F05BE4F04BECF05B10000060093
:1018940000FE6022B80300E0A00032C80BDE9E0008
:1018A4003A573E20871F785400F8889FBE8A9FBE0F
:1018B4008C9FBE0178A306003A04D8A3020032D15B
:1018C40048AF0160A204C0A70160A03B00242D0022
:1018D4002004F0A02C8D200C00E006003204F0A1BE
:1018E4000B0024E8CF400200324D00201B002406E8
:1018F40000FA0D06D08C87478E03788B1B78809B6B
:10190400BE0F04788004EBDCEA2D0C28E1100032D1
:10191400C22ADD0300328502E9058009B61F78007A
:10192400C8FE852120860120D1E8AFFEFF370200E2
:1019340037951FBAB59FBA0683E9FCFF31888457EF
:101944006810F86830EF5500378F05780D06E90CFC
:101954008009809FEB0300E9008009B25D78038170
:10196400558001EB8D00D00F00A78000EB0D00D156
:10197400020009B25B7880DBEB0000E9FBFF3A81EF
:1019840087570D06E90C8009C70F483A0031C7058F
:10199400784705788D004560864D64035489037843
:1019A400640343E883530700393608E136E0E1FA7B
:1019B400FF343650E136D8E1F8FF312A0037000011
:1019C40020A10F2062034704F0A73600BEA10288BD
:1019D4008D00D18E0378068D20D1E8AFFEFF37024B
:1019E4000009371B783708BB3798BB8100E9FCFF37
:1019F4003A6A3221FEB0977FB8970100B88A035043
:101A04000A00201A00A00000EB1A00A7FEFF37040A
:101A1400A0A70060FE8A1602000000070B78B10937
:101A2400B0010B78D1E8A800000000000004B8A3BE
:101A3400D1E8AFFEFF3AAC1602000000E203470013
:101A440000EB979B46971B480D00D1008046808190
:101A540051B2FF31808141A5FF3A00FF23D028B65F
:101A64008027EB1E0090AE00900080FA4F06BE4F18
:101A740005BE4F04BE5400F98027EB6830EF000028
:101A840006EE8747889FBE8A9FBE8C9FBE8E1F78B6
:101A94000006780D80204E83806830EF00202001FE
:101AA4000020B0B79FC1B79F7A805750150200003D
:101AB40000D0B79FE1B79FF2B79F83BF9F890020F3
:101AC4000004EB2E0037CFEA97E9CF420500361029
:101AD4000020960C020000000000EB4B00377FB59D
:101AE400978FBD970D00E97FB3978600600500329C
:101AF4008000EB0A00708B8070610540E0854861CE
:101B040068B85FB197EFB197000041818049D0B7C1
:101B14009FE1B79F8A0F508B8F5810003980212086
:101B2400010020BFB297808F523000317A80575025
:101B34001502000000D0B79FE1B79FF2B79F83BFA3
:101B44009F800F55818F5D0100360804E90804E881
:101B54001C0078800F54CFFF39000EE85FB097EF78
:101B6400B0970615020000000000E016003A5FB2CC
:101B740097EFB297420020030020002320010020A9
:101B8400D812020000000000E00C003AE07B2000C4
:101B940007474E83885FB097EFB097181402000090
:101BA400000000EB960C0200000010002005003736
:101BB4008904E9DEFF3A1000200100370000EB4FF2
:101BC40007784F06BE4F05BE4F04BEEF00B10000BC
:101BD400061600FA889FBE8A9FBE8C1F78820478FE
:101BE40003057804047802F02B23002082B79F9326
:101BF400B79F0FB1979FB19792BF9FA3BF9F080054
:101C0400E001003A7C84570006EB8005EB880278FB
:101C14000B02788A0178090178DA0D0200000000CD
:101C240000E03600321802BE820020030020402368
:101C340020010020D812020000000000E01E003A3B
:101C44001802BE1FB897AFB897E00F50E08F580F37
:101C540000320400BE1FB997AFB997820F52838F29
:101C64005A0900390B00E01C003A2841909B0020DF
:101C74000204E00100354B0020A80490DAFF37820B
:101C84000120030020802120010020D8120200003E
:101C9400000000E00F00321C0020E30F550D003659
:101CA4002801900205556305550A85442400200542
:101CB4000020380042A8804AE30441C5FF37CCFF26
:101CC4002F0100370086EB0C00784F06784F05BED5
:101CD4004F04BE0080FA0000060A00FA889FBE8AFC
:101CE4009FBE8C9FBE3007984F0798600320010069
:101CF400209216020000000002BE8005788080E871
:101D04000100A18187474E05908000EBC223200388
:101D140000200A0078C011020000003300370040A0
:101D2400EB5047980A0078B04078214798B0407843
:101D3400314798104078404798630045104F784ADF
:101D440040901047982A4090E84F40040032140015
:101D5400200004E005003D0100378400203E00908F
:101D64000000E01600321E0678E606451E0490AE1A
:101D740004908002EB8C01780D01780800BEDA0D26
:101D8400020000000000E00A0032F03D2040838899
:101D94000003EBD5EA2D0002EB8C01780D017808E5
:101DA40000BEF60E020000001E0078808555E68510
:101DB40055660040000545E68F55CBFF3E6830EF81
:101DC400CE07904F06BE4F05BE4F04BE0080FA00FA
:101DD4000006889FBE8A9FBE8C1F787231EF6830E0
:101DE400EF6430EF5C30EF5030EF5230EF8F00078C
:101DF400600E210008EBC08280D18280908788A188
:101E04008788A08280B18280450ADDCB02DE85020C
:101E1400724502DD6033B86000B86011B804025046
:101E2400858258060359878359015B21001121D605
:101E340001077503070004BE0A02200B82200C84EC
:101E4400200B06560060FE6E0307C28280D3828098
:101E54004C1ADD4411DE020172C419DE08025089F5
:101E64008258820F52838F5A0400360804418984B1
:101E7400491000207E0407C172800100650400320D
:101E84008000EBF082801108980E0037CD02070025
:101E940000E00B0032F00F204004070C01788000B2
:101EA400EB0B00785B040750B0EF52B0EF6030EFFB
:101EB4006270EF1004070140FED8FF376022B88833
:101EC4009FBE8A9FBE5400F80500E04220AF8F02F7
:101ED40078E482420178A306003A04D8A3020032CF
:101EE400D148AF0160A204C0A70160A0A10288800C
:101EF40000EBD1E8AFFEFF370300370080E8420073
:101F0400AF5420EC8301E9290039821A78D10020EA
:101F1400F6FF2FF70F203243788301E9050039B229
:101F240048788301E9030039B2437802003704306A
:101F3400A00420A01004BA9084BA889ABE869ABEDF
:101F4400E30F620B00320683EA87C3EA080563895C
:101F540085630400A70A03BE08057389857304100A
:101F6400A70A03BE6044B808035389835BEC0F627D
:101F74000300328003EB0430A7F60FB2EA825287E3
:101F84000073D2FF32A60280862278802278010074
:101F9400785400F94F05BE4F04BE000006889FBE6A
:101FA400B5EFA910002050200A860F00920120B03E
:101FB400220A880F0050002064200A8A0F001200B1
:101FC4002020220A8A0F00A1092032002080072045
:101FD40053F820804978814978824978227C8002AC
:101FE40000A071052060042043F8208049788149CD
:101FF40078824978840FABFEFF3A010220227C806C
:10200400028060FDFF3208A025292620C88288D9D5
:102014008288C88288D9828800C429A082885630E0
:10202400EF800220508388E202073E6EEF3A6EEFA3
:10203400270EA8272EA81D0EA91D2EA90001EB50BE
:10204400220A880D00D8220A880D00212684020065
:1020540078460007401221F082880800BE4F04BE73
:102064000000060000FE6022B80178A306003A04CE
:10207400D8A3020032D148AF0160A204C0A7016016
:10208400A0809FBE829FBE5400F8A102880300E096
:102094002C0032670020E39F53268D200600E004C5
:1020A4000032F7BF9F0010A704F0A00010A10000A9
:1020B400A1D1E8AFFEFF37FFBB978080EB90C0BA99
:1020C400901FBACF9F600080E86638E105003A901F
:1020D400C0BACF9F609000BACF9F600080E8000034
:1020E400E04220AF5420EC04F0A7E3835304F0A1B2
:1020F400CF8FEA04003A070141878151070036E790
:10210400FF3700D9EB8301E90300328703E9FBFFC2
:102114003AE1FF378F87E95400F94F01BE4F00BE03
:10212400BE0904000000889FBE8A1F7800057881DC
:10213400047818C0B3F00720808F5401003C004499
:10214400EB6104644A44DD0860A008C0A0000020DC
:10215400C12120010070808B880008EBA82FA80003
:1021640000EBF08A88A82FA90002EBA369210001E3
:1021740020010020000178C114218013219415024C
:10218400000000046A218001EB8007200100200088
:102194000178E1062140122194150200000050024A
:1021A40020408A88A08988401721308A88004E21DF
:1021B400908988808B800808782022EF2822EF29D4
:1021C40011886A118804A8A910002074200A5208F2
:1021D40000B21602000000808B8010F0A04F05783A
:1021E4004F04BE00000660B0BF3A0032CFB897CDAE
:1021F40008DE37003A4460AF35003A6210AC330071
:102204003A3600F83200F83400F80000F8849FBE33
:10221400869FBE658380A68B80378B80950213379B
:1022240083189783184260EF04062184017814828E
:10223400101B00326200423028E130B0E130B8E1D6
:10224400F8FF33849FBE869FBEB08210308318B0DF
:1022540083184220AF940978548A42540A4B548A12
:102264004B260521070020869FBEB01F78B01F783B
:102274000040064260EF4F03BE4F02BE100A988032
:1022840000EBE2FF374F03BE4F02BE0000F93400FB
:10229400F93200F93600F96210A94F01BECF007877
:1022A4000040068002EB0F00A78082EBE0814042F1
:1022B40020AF000005851F78801FE803009002000E
:1022C400E14200AF020078230290B30390430390ED
:1022D400070343CF00E91A00328403530038E14274
:1022E40000AFE003500300328702E9058009B458C7
:1022F400780620E14200AF43029087035003003286
:102304008702E9058009B458788080504F00E002C4
:102314000032930910A40198E303900700E04220DF
:10232400AE0700010000060002420620E14200AFB1
:10233400070252000178F1FF37C800DE260032128E
:1023440002804811DD4460AF0270A0CF1F716200AB
:10235400B84001B0C308AE1A003702F12B210020A7
:10236400810171160032801F7800F12B641602007F
:102374000000809FEA00F02B210020641602000078
:1023840000000178CF01E94F00788000EB02F0A64D
:102394000230A7060037F4FF218481610480200302
:1023A40021B8020040838048641602000000809F28
:1023B400BE000006801FEB811F78801F78861F787F
:1023C400851F78841F78C815020000006814020075
:1023D40000008003EB4F8253CF825B4F835BCF01BE
:1023E400781400320706219719780B0033841940BA
:1023F4008599488619498499BE861978CF1978CF6A
:102404001978000028801978F48B5100000684198B
:10241400508599588619590200098019EBF4FF3741
:10242400E48757000006889FBE8A1F780004BE0216
:102434000578080037080078201602000000000024
:10244400E0030032080890D610020000001800E0F3
:102454000F0032681402000000390150A98158BAF3
:102464000F51AA8F59EFFF36070037681402000096
:1024740000390150A98158BA0F51AA8F5904003E5E
:102484002002ABF7FF3A1000200100370000EB4FA9
:1024940005784F04BE0000060400E02100328002EB
:1024A400786208B83600200500094688D800014142
:1024B4000380B00000EBA70280A30288D1E8AFFE3E
:1024C400FF370100E00C00320402E90200A7060015
:1024D40037D25ABA0402E90C0039020037B25ABAA8
:1024E400925ABAC2DABA0281E854A0B4630252F929
:1024F400FF31620242020033048009B25ABAA702D1
:1025040088000006E00140020078200032C30390F6
:1025140033039013029093025306834384035300BE
:1025240028E14200AE0500788002780538E14200D7
:10253400AE8702788503E9020039078009315A78A9
:102544000620E14200AF43029005035003003286A7
:1025540003E9078009315A78930940940198D30319
:10256400908080500700E04220AE07000100000682
:102574000000E04220AF100005881F78829FBE0053
:102584000478681402000000809FBEF803900700DE
:10259400E0070032080078E480576881570700019B
:1025A400E887574F04780000061000201800E0FA6E
:1025B400FF326814020000007FB997EFB997020058
:1025C400508380585FB997CFB9970200E10388E13F
:1025D400F2FF340000EBEDFF370080EA8180EA85EA
:1025E400002006322887DB2E100037B25A78B25208
:1025F400780400688400208100D10080D30200396F
:102604000600688780688100D10080D30200390603
:1026140000688780680402E9F4FF3AE28151EEFF22
:102624003BE2814104003212406844002003002050
:10263400ECFF370080EA8180EA0000060400FA8893
:102644001F788A9FBE0003BEB0BF9FC1BF9F020414
:10265400780405BE0000EBE00F53E08F5B0B003AFB
:102664000F00376A8057501502000000800F558113
:102674008F5D030039820F55838F5D050039640433
:10268400540800E0F4FF3A0000EB0100371000208A
:102694004F05BE4F04780080FA0000060000FED10A
:1026A400E8AFFEFF378046884783806830EF013B00
:1026B400B8613221B709B08100538A1602000000C4
:1026C400B146888000EBB74688D1E8A80000000036
:1026D40000000200A6AC16020000008003EB020812
:1026E400A3D1E8AFFEFF3AD1C8A90200A7AC1602F5
:1026F400000000000006A080210100206A0150E0D3
:1027040081580A00326416020000004800DEC8083E
:10271400DD010070D22C210000514220AE000005E2
:10272400100005C0FF2B2100200160A064160200E8
:1027340000004C01DEC409DD0301710080EAF4FFEE
:1027440020040060F0FF371100200F00A7010020D3
:102754000282200700371100200F00A7010020008B
:1027640000E04220AF000005028020800990481854
:10277400DE4220AE000005431ADE0400A10401413C
:10278400EF81611218A50080D2E080401298AD005C
:1027940000060001EB6022B80100E0110032B11F15
:1027A400E90E0033F3FF20310378CC33DE030363F7
:1027B40002034300A8A51638A50428AD4200AA4286
:1027C40020AE1638AD8502E8CF1FE9F3FF3B8F87B3
:1027D400E90400780000065C10000200008000009C
:1027E4005010000400008000005C11000200008012
:1027F400000072110002000080000064100002005A
:1028040000800000661000020000800000681000D4
:102814000200008000000000000000FED1E8AFFECE
:10282400FF37A20280A102880308BBA20288904657
:1028340088A14688200424D0C8A8D0C8AE1084B289
:102844000001EB513E201A1302000000D1E8AFFE54
:10285400FF37D1C8A9000006889FBE8A9FBE000426
:10286400BE6814020000000005BE8001EB0300E016
:102874004220AE0140FE6814020000000A02508BA0
:10288400825804015485815CF6FF314F05BE4F0424
:10289400BE0000066783800003EB651621A08B80D1
:1028A400150278170010B4001B34011B94011B643B
:1028B40002521520E1F7FF3A0480204400B014903E
:1028C400A6000006804B21741602000000ECFF37BE
:1028D4000000EBA08B88001621308B88E09C2060E0
:1028E40083880006210000E00200326030EF62704D
:1028F400EFBC29EFBE29EFD2A9EF20002074200AF3
:102904005408002528A8BDE9A8000006811F788284
:102914009FBE8001EB318B806881683119E8319961
:1029240049118949640151328B880180204100B0EA
:102934001190A141FF200100E04220AE0104014FAB
:1029440001BECF0078004006881F78000478180183
:10295400788800780000EB761002000000180890D8
:102964000040A1100C981808900050A1100C981861
:1029740008900060A1100C981000204F047800000B
:1029840006A20280A10288F37F208380EA0080608F
:102994000082EBD1E8AFFEFF3710C2BAB000BA0133
:1029A40002628480EA04003A8381E9F9FF31A202D9
:1029B40088100005A20288000005831F78821F7812
:1029C400801F78681402000000CF83E86210AC1600
:1029D4000280370278A70278CF1B40CF9B48E013D0
:1029E400490610A76210A9470052D7805A00000672
:1029F400300278A00278A7028064184260884AA551
:102A040002880483E8E0824AD1E8AFFEFF3714006D
:102A1400BA9480BAA502881601BA9681BAA7028828
:102A24000000060000000202E9050039810170037C
:102A340000A603003704800931587800000682019B
:102A4400D18301E90300390380093118780200A712
:102A54003158780000068002EB050878320098416E
:102A6400009811009821009853009864009875000C
:102A7400988080EB0108980100281108980000064E
:102A84006410E2080032600E2187F707A28280B347
:102A940082808301D10281D3001121B4FF07000099
:102AA400EB0000060106210100378200781101784D
:102AB4000200E0040032800F51FAFF3A90087810C7
:102AC4000005000005D1E8AFFEFF37D1C8A9D2A8A0
:102AD400EFD4A8EFA1028054A0EFE2FF2F0209BBBC
:102AE400A10288000006AFFE070000E006003202E3
:102AF40001FC2017210088EB0C18020000000000E4
:102B0400FE000006B04178B1C15103003A0201E968
:102B1400FBFF310000050080EB4200AF1000050010
:102B240000060182200F00A7018020000990C31134
:102B3400DE67016161C0790200DE610060000006A9
:102B4400C006210000E00400320082204000B010E2
:102B540090A44200AE000005100005801F7800001C
:102B6400EBA616020000004F0060A616020000004B
:102B74000080EA000006E582801600200500E002DD
:102B84000032050001000378060078000006A20266
:102B940080A10288D1E8AFFEFF379080BA1000BA56
:102BA400A20288000006110280C808DD4460AF015B
:102BB40070A0CF9F700004010201E9020039028075
:102BC40009015878000006000820CF1F7010028009
:102BD4000040066300B88100D10080D3000006A144
:102BE40014211120A00000066113211130A000005F
:102BF40006C14B28BC13040000004800DDCF1F7041
:102C040000400624A8A8000006FFFFFFFFFFFFFF07
:102C1400FFFFFFFFFFFFFFFFFFFFFFFFFFFFFFFFC0
:102C2400FFFFFFFFFFFFFFFFFFFFFFFFFFFFFFFFB0
:102C3400FFFFFFFFFFFFFFFFFFFFFFFFFFFFFFFFA0
:102C4400FFFFFFFFFFFFFFFFFFFFFFFFFFFFFFFF90
:102C5400FFFFFFFFFFFFFFFFFFFFFFFFFFFFFFFF80
:102C6400FFFFFFFFFFFFFFFFFFFFFFFFFFFFFFFF70
:102C7400FFFFFFFFFFFFFFFFFFFFFFFFFFFFFFFF60
:102C8400FFFFFFFFFFFFFFFFFFFFFFFFFFFFFFFF50
:102C9400FFFFFFFFFFFFFFFFFFFFFFFFFFFFFFFF40
:102CA400FFFFFFFFFFFFFFFFFFFFFFFFFFFFFFFF30
:102CB400FFFFFFFFFFFFFFFFFFFFFFFFFFFFFFFF20
:102CC400FFFFFFFFFFFFFFFFFFFFFFFFFFFFFFFF10
:102CD400FFFFFFFFFFFFFFFFFFFFFFFFFFFFFFFF00
:102CE400FFFFFFFFFFFFFFFFFFFFFFFFFFFFFFFFF0
:102CF400FFFFFFFFFFFFFFFFFFFFFFFFFFFFFFFFE0
:102D0400FFFFFFFFFFFFFFFFFFFFFFFFFFFFFFFFCF
:102D1400FFFFFFFFFFFFFFFFFFFFFFFFFFFFFFFFBF
:102D2400FFFFFFFFFFFFFFFFFFFFFFFFFFFFFFFFAF
:102D3400FFFFFFFFFFFFFFFFFFFFFFFFFFFFFFFF9F
:102D4400FFFFFFFFFFFFFFFFFFFFFFFFFFFFFFFF8F
:102D5400FFFFFFFFFFFFFFFFFFFFFFFFFFFFFFFF7F
:102D6400FFFFFFFFFFFFFFFFFFFFFFFFFFFFFFFF6F
:102D7400FFFFFFFFFFFFFFFFFFFFFFFFFFFFFFFF5F
:102D8400FFFFFFFFFFFFFFFFFFFFFFFFFFFFFFFF4F
:102D9400FFFFFFFFFFFFFFFFFFFFFFFFFFFFFFFF3F
:102DA400FFFFFFFFFFFFFFFFFFFFFFFFFFFFFFFF2F
:102DB400FFFFFFFFFFFFFFFFFFFFFFFFFFFFFFFF1F
:102DC400FFFFFFFFFFFFFFFFFFFFFFFFFFFFFFFF0F
:102DD400FFFFFFFFFFFFFFFFFFFFFFFFFFFFFFFFFF
:102DE400FFFFFFFFFFFFFFFFFFFFFFFFFFFFFFFFEF
:102DF400FFFFFFFFFFFFFFFFFFFFFFFFFFFFFFFFDF
:102E0400FFFFFFFFFFFFFFFFCD128E2A040000002B
:102E14001C38040000002238040000003438040088
:102E240000002838040000002E3804000000343864
:102E340004000000343804000000343804000000AA
:102E4400443204000000BA330400000028320400B5
:102E54000000343804000000343804000000C43199
:102E6400040000003438040000003438040000007A
:102E7400022D04000000A82E0400000034380400D1
:102E840000003438040000003438040000003438F2
:102E940004000000343804000000943104000000F1
:102EA40030350400000034380400000034380400D5
:102EB4000000343804000000DC3104000000343821
:102EC40004000000343804000000982D04000000C1
:102ED400F42E0400000034380400000034380400E8
:102EE40000003438040000008C3104000000343841
:102EF40004000000882B04000000343804000000A3
:102F0400343804000000B81404000000343804000D
:102F14000000343804000000343804000000343861
:102F240004000000343804000000343804000000B9
:102F3400343804000000343804000000343804003D
:102F44000000343804000000343804000000343831
:102F540004000000202E04000000402F04000000A4
:102F6400343804000000343804000000343804000D
:102F74000000343804000000343804000000343801
:102F84000400000034380400000034380400000059
:102F940034380400000034380400000034380400DD
:102FA40000003438040000003438040000003438D1
:102FB40004000000343804000000A63604000000B9
:102FC40034380400000034380400000034380400AD
:102FD40000003438040000003438040000003438A1
:102FE40004000000343804000000343804000000F9
:102FF400343804000000343804000000343804007D
:103004000000343804000000343804000000843127
:10301400040000003438040000008C2F0400000079
:10302400343804000000343804000000343804004C
:103034000000343804000000B62F040000003438C7
:1030440004000000343804000000E02F04000000F5
:103054000A30040000003430040000005E30040034
:103064000000883004000000B23004000000DC30AE
:1030740004000000063104000000303104000000A8
:103084005A310400000034380400000034380400CD
:1030940000003438040000003438040000003438E0
:1030A4000400000034380400000034380400000038
:1030B40034380400000034380400000034380400BC
:1030C40000003438040000003438040000003438B0
:1030D4000400000034380400000034380400000008
:1030E400343804000000343804000000343804008C
:1030F4000000343804000000343804000000343880
:1031040004000000343804000000343804000000D7
:10311400343804000000343804000000343804005B
:10312400000034380400000034380400000034384F
:1031340004000000343804000000343804000000A7
:10314400343804000000343804000000343804002B
:10315400000034380400000034380400000034381F
:103164000400000034380400000034380400000077
:1031740034380400000034380400000034380400FB
:1031840000003438040000003438040000003438EF
:103194000400000034380400000034380400000047
:1031A40034380400000034380400000034380400CB
:1031B4000000FFFF00FFFF00FF0000FFFF00FF0013
:1031C40000FFFF00FF0000FFFF00FF0000FFFF0003
:1031D400FF0000FFFF00FF0000FFFF00FF0000FFF3
:1031E400FF00FF0000FFFF00FF0000FFFF00FF00E3
:1031F40000FFFF00FF0000FFFF00FF0000FFFF00D3
:10320400FF0000FFFF00FF0000FFFF00FF0000FFC2
:10321400FF00FF0000FFFF00FF0000FFFF00FF00B2
:1032240000FFFF00FF0000FFFF00FF0000FFFF00A2
:10323400FF0000FFFF00FF0000FFFF00FF0000FF92
:10324400FF00FF0000FFFF00FF0000FFFF00FF0082
:1032540000FFFF00FF0000FFFF00FF0000FFFF0072
:10326400FF0000FFFF00FF0000FFFF00FF0000FF62
:10327400FF00FF0000FFFF00FF0000FFFF00FF0052
:1032840000FFFF00FF0000FFFF00FF0000FFFF0042
:10329400FF0000FFFF00FF0000FFFF00FF0000FF32
:1032A400FF00FF0000FFFF00FF0000FFFF00FF0022
:1032B40000FFFF00FF0000FFFF00FF0000FFFF0012
:1032C400FF0000FFFF00FF0000FFFF00FF0000FF02
:1032D400FF00FF0000FFFF00FF0000FFFF00FF00F2
:1032E40000FFFF00FF0000FFFF00FF0000FFFF00E2
:1032F400FF0000FFFF00FF0000FFFF00FF0000FFD2
:10330400FF00FF0000FFFF00FF0000FFFF00FF00C1
:1033140000FFFF00FF0000FFFF00FF0000FFFF00B1
:10332400FF0000FFFF00FF0000FFFF00FF0000FFA1
:10333400FF00FF0000FFFF00FF0000FFFF00FF0091
:1033440000FFFF00FF0000FFFF00FF0000FFFF0081
:10335400FF0000FFFF00FF0000FFFF00FF0000FF71
:10336400FF00FF0000FFFF00FF0000FFFF00FF0061
:1033740000FFFF00FF0000FFFF00FF0000FFFF0051
:10338400FF0000FFFF00FF0000FFFF00FF0000FF41
:10339400FF00FF0000FFFF00FF0000FFFF00FF0031
:1033A40000FFFF00FF0000FFFF00FF0000FFFF0021
:1033B400FF0000FFFF00FF0000FFFF00FF0000FF11
:1033C400FF00FF0000FFFF00FF0000FFFF00FF0001
:1033D40000FFFF00FF0000FFFF00FF0000FFFF00F1
:1033E400FF0000FFFF00FF0000FFFF00FF0000FFE1
:1033F400FF00FF0000FFFF00FF0000FFFF00FF00D1
:1034040000FFFF00FF0000FFFF00FF0000FFFF00C0
:10341400FF0000FFFF00FF0000FFFF00FF0000FFB0
:10342400FF00FF0000FFFF00FF0000FFFF00FF00A0
:1034340000FFFF00FF0000FFFF00FF0000FFFF0090
:10344400FF0000FFFF00FF0000FFFF00FF0000FF80
:10345400FF00FF0000FFFF00FF0000FFFF00FF0070
:1034640000FFFF00FF0000FFFF00FF0000FFFF0060
:10347400FF0000FFFF00FF0000FFFF00FF0000FF50
:10348400FF00FF0000FFFF00FF0000FFFF00FF0040
:1034940000FFFF00FF0000FFFF00FF0000FFFF0030
:1034A400FF0000FFFF00FF0000FFFF00FF0000FF20
:1034B400FF00FF0000FFFF00FF0000FFFF00FF0010
:1034C40000FFFF00FF0000FFFF00FF0000FFFF0000
:1034D400FF0000FFFF00FF0000FFFF00FF0000FFF0
:1034E400FF00FF0000FFFF00FF0000FFFF00FF00E0
:1034F40000FFFF00FF0000FFFF00FF0000FFFF00D0
:10350400FF0000FFFF00FF0000FFFF00FF0000FFBF
:10351400FF00FF0000FFFF00FF0000FFFF00FF00AF
:1035240000FFFF00FF0000FFFF00FF0000FFFF009F
:10353400FF0000FFFF00FF0000FFFF00FF0000FF8F
:10354400FF00FF0000FFFF00FF0000FFFF00FF007F
:1035540000FFFF00FF0000FFFF00FF0000FFFF006F
:10356400FF0000FFFF00FF0000FFFF00FF0000FF5F
:10357400FF00FF0000FFFF00FF0000FFFF00FF004F
:1035840000FFFF00FF0000FFFF00FF0000FFFF003F
:10359400FF0000FFFF00FF0000FFFF00FF0000FF2F
:1035A400FF00FF0000FFFF00FF0000FFFF00FF001F
:1035B40000FFFF00FF0000FFFF00FF0000FFFF000F
:1035C400FF0000FFFF00FF0000FFFF00FF0000FFFF
:1035D400FF00FF0000FFFF00FF0000FFFF00FF00EF
:1035E40000FFFF00FF0000FFFF00FF0000FFFF00DF
:1035F400FF0000FFFF00FF0000FFFF00FF0000FFCF
:10360400FF00FF0000FFFF00FF0000FFFF00FF00BE
:1036140000FFFF00FF0000FFFF00FF0000FFFF00AE
:10362400FF0000FFFF00FF0000FFFF00FF0000FF9E
:10363400FF00FF0000FFFF00FF0000FFFF00FF008E
:1036440000FFFF00FF0000FFFF00FF0000FFFF007E
:10365400FF0000FFFF00FF0000FFFF00FF0000FF6E
:10366400FF00FF0000FFFF00FF0000FFFF00FF005E
:1036740000FFFF00FF0000FFFF00FF0000FFFF004E
:10368400FF0000FFFF00FF0000FFFF00FF0000FF3E
:10369400FF00FF0000FFFF00FF0000FFFF00FF002E
:1036A40000FFFF00FF0000FFFF00FF0000FFFF001E
:1036B400FF0000FFFF00FF0000FFFF00FF0000FF0E
:1036C400FF00FF0000FFFF00FF0000FFFF00FF00FE
:1036D40000FFFF00FF0000FFFF00FF0000FFFF00EE
:1036E400FF0000FFFF00FF0000FFFF00FF0000FFDE
:1036F400FF00FF0000FFFF00FF0000FFFF00FF00CE
:1037040000FFFF00FF0000FFFF00FF0000FFFF00BD
:10371400FF0000FFFF00FF0000FFFF00FF0000FFAD
:10372400FF00FF0000FFFF00FF0000FFFF00FF009D
:1037340000FFFF00FF0000FFFF00FF0000FFFF008D
:10374400FF0000FFFF00FF0000FFFF00FF0000FF7D
:10375400FF00FF0000FFFF00FF0000FFFF00FF006D
:1037640000FFFF00FF0000FFFF00FF0000FFFF005D
:10377400FF0000FFFF00FF0000FFFF00FF0000FF4D
:10378400FF00FF0000FFFF00FF0000FFFF00FF003D
:1037940000FFFF00FF0000FFFF00FF0000FFFF002D
:1037A400FF0000FFFF00FF0000FFFF00FF0000FF1D
:1037B400FF00FF0000FFFF00FF0000FFFF00FF000D
:1037C40000FFFF00FF0000FFFF00FF0000FFFF00FD
:1037D400FF0000FFFF00FF0000FFFF00FF0000FFED
:1037E400FF00FF0000FFFF00FF0000FFFF00FF00DD
:1037F40000FFFF00FF0000FFFF00FF0000FFFF00CD
:10380400FF0000FFFF00FF0000FFFF00FF0000FFBC
:10381400FF00FF0000FFFF00FF0000FFFF00FF00AC
:1038240000FFFF00FF0000FFFF00FF0000FFFF009C
:10383400FF0000FFFF00FF0000FFFF00FF0000FF8C
:10384400FF00FF0000FFFF00FF0000FFFF00FF007C
:1038540000FFFF00FF0000FFFF00FF0000FFFF006C
:10386400FF0000FFFF00FF0000FFFF00FF0000FF5C
:10387400FF00FF0000FFFF00FF0000FFFF00FF004C
:1038840000FFFF00FF0000FFFF00FF0000FFFF003C
:10389400FF0000FFFF00FF0000FFFF00FF0000FF2C
:1038A400FF00FF0000FFFF00FF0000FFFF00FF001C
:1038B40000FFFF00FF0000FFFF00FF0000FFFF000C
:1038C400FF0000FFFF00FF0000FFFF00FF0000FFFC
:1038D400FF00FF0000FFFF00FF0000FFFF00FF00EC
:1038E40000FFFF00FF0000FFFF00FF0000FFFF00DC
:1038F400FF0000FFFF00FF0000FFFF00FF0000FFCC
:10390400FF00FF0000FFFF00FF0000FFFF00FF00BB
:1039140000FFFF00FF0000FFFF00FF0000FFFF00AB
:10392400FF0000FFFF00FF0000FFFF00FF0000FF9B
:10393400FF00FF0000FFFF00FF0000FFFF00FF008B
:1039440000FFFF00FF0000FFFF00FF0000FFFF007B
:10395400FF0000FFFF00FF0000FFFF00FF0000FF6B
:10396400FF00FF0000FFFF00FF0000FFFF00FF005B
:1039740000FFFF00FF0000FFFF00FF0000FFFF004B
:10398400FF0000FFFF00FF0000FFFF00FF0000FF3B
:10399400FF00FF0000FFFF00FF0000FFFF00FF002B
:1039A40000FFFF00FF0000FFFF00FF0000FFFF001B
:1039B400FF0000FFFF00FF0000FFFF00FF0000FF0B
:1039C400FF00FF0000FFFF00FF0000FFFF00FF00FB
:1039D40000FFFF00FF0000FFFF00FF0000FFFF00EB
:1039E400FF0000FFFF00FF0000FFFF00FF0000FFDB
:1039F400FF00FF0000FFFF00FF0000FFFF00FF00CB
:103A040000FFFF00FF0000FFFF00FF0000FFFF00BA
:103A1400FF0000FFFF00FF0000FFFF00FF0000FFAA
:103A2400FF00FF0000FFFF00FF0000FFFF00FF009A
:103A340000FFFF00FF0000FFFF00FF0000FFFF008A
:103A4400FF0000FFFF00FF0000FFFF00FF0000FF7A
:103A5400FF00FF0000FFFF00FF0000FFFF00FF006A
:103A640000FFFF00FF0000FFFF00FF0000FFFF005A
:103A7400FF0000FFFF00FF0000FFFF00FF0000FF4A
:103A8400FF00FF0000FFFF00FF0000FFFF00FF003A
:103A940000FFFF00FF0000FFFF00FF0000FFFF002A
:103AA400FF0000FFFF00FF0000FFFF00FF0000FF1A
:103AB400FF00FF0000FFFF00FF0000FFFF00FF000A
:103AC40000FFFF00FF0000FFFF00FF0000FFFF00FA
:103AD400FF0000FFFF00FF0000FFFF00FF0000FFEA
:103AE400FF00FF0000FFFF00FF0000FFFF00FF00DA
:103AF40000FFFF00FF0000FFFF00FF0000FFFF00CA
:103B0400FF0000FFFF00FF0000FFFF00FF0000FFB9
:103B1400FF00FF0000FFFF00FF0000FFFF00FF00A9
:103B240000FFFF00FF0000FFFF00FF0000FFFF0099
:103B3400FF0000FFFF00FF0000FFFF00FF0000FF89
:103B4400FF00FF0000FFFF00FF0000FFFF00FF0079
:103B540000FFFF00FF0000FFFF00FF0000FFFF0069
:103B6400FF0000FFFF00FF0000FFFF00FF0000FF59
:103B7400FF00FF0000FFFF00FF0000FFFF00FF0049
:103B840000FFFF00FF0000FFFF00FF0000FFFF0039
:103B9400FF0000FFFF00FF0000FFFF00FF0000FF29
:103BA400FF00FF0000FFFF00FF0000FFFF00FF0019
:103BB40000FFFF00FF0000FFFF00FF0000FFFF0009
:103BC400FF0000FFFF00FF0000FFFF00FF0000FFF9
:103BD400FF00FF0000FFFF00FF0000FFFF00FF00E9
:103BE40000FFFF00FF0000FFFF00FF0000FFFF00D9
:103BF400FF0000FFFF00FF0000FFFF00FF0000FFC9
:103C0400FF00FF0000FFFF00FF0000FFFF00FF00B8
:103C140000FFFF00FF0000FFFF00FF0000FFFF00A8
:103C2400FF0000FFFF00FF0000FFFF00FF0000FF98
:103C3400FF00FF0000FFFF00FF0000FFFF00FF0088
:103C440000FFFF00FF0000FFFF00FF0000FFFF0078
:103C5400FF0000FFFF00FF0000FFFF00FF0000FF68
:103C6400FF00FF0000FFFF00FF0000FFFF00FF0058
:103C740000FFFF00FF0000FFFF00FF0000FFFF0048
:103C8400FF0000FFFF00FF0000FFFF00FF0000FF38
:103C9400FF00FF0000FFFF00FF0000FFFF00FF0028
:103CA40000FFFF00FF0000FFFF00FF0000FFFF0018
:103CB400FF0000FFFF00FF0000FFFF00FF0000FF08
:103CC400FF00FF0000FFFF00FF0000FFFF00FF00F8
:103CD40000FFFF00FF0000FFFF00FF0000FFFF00E8
:103CE400FF0000FFFF00FF0000FFFF00FF0000FFD8
:103CF400FF00FF0000FFFF00FF0000FFFF00FF00C8
:103D040000FFFF00FF0000FFFF00FF0000FFFF00B7
:103D1400FF0000FFFF00FF0000FFFF00FF0000FFA7
:103D2400FF00FF0000FFFF00FF0000FFFF00FF0097
:103D340000FFFF00FF0000FFFF00FF0000FFFF0087
:103D4400FF0000FFFF00FF0000FFFF00FF0000FF77
:103D5400FF00FF0000FFFF00FF0000FFFF00FF0067
:103D640000FFFF00FF0000FFFF00FF0000FFFF0057
:103D7400FF0000FFFF00FF0000FFFF00FF0000FF47
:103D8400FF00FF0000FFFF00FF0000FFFF00FF0037
:103D940000FFFF00FF0000FFFF00FF0000FFFF0027
:103DA400FF0000FFFF00FF0000FFFF00FF0000FF17
:103DB400FF00FF0000FFFF00FF0000FFFF00FF0007
:103DC40000FFFF00FF0000FFFF00FF0000FFFF00F7
:103DD400FF0000FFFF00FF0000FFFF00FF0000FFE7
:103DE400FF00FF0000FFFF00FF0000FFFF00FF00D7
:103DF40000FFFF00FF0000FFFF00FF0000FFFF00C7
:103E0400FF0000FFFF00FF0000FFFF00FF0000FFB6
:103E1400FF00FF0000FFFF00FF0000FFFF00FF00A6
:103E240000FFFF00FF0000FFFF00FF0000FFFF0096
:103E3400FF0000FFFF00FF0000FFFF00FF0000FF86
:103E4400FF00FF0000FFFF00FF0000FFFF00FF0076
:103E540000FFFF00FF0000FFFF00FF0000FFFF0066
:103E6400FF0000FFFF00FF0000FFFF00FF0000FF56
:103E7400FF00FF0000FFFF00FF0000FFFF00FF0046
:103E840000FFFF00FF0000FFFF00FF0000FFFF0036
:103E9400FF0000FFFF00FF0000FFFF00FF0000FF26
:103EA400FF00FF0000FFFF00FF0000FFFF00FF0016
:103EB40000FFFF00FF0000FFFF00FF0000FFFF0006
:103EC400FF0000FFFF00FF0000FFFF00FF0000FFF6
:103ED400FF00FF0000FFFF00FF0000FFFF00FF00E6
:103EE40000FFFF00FF0000FFFF00FF0000FFFF00D6
:103EF400FF0000FFFF00FF0000FFFF00FF0000FFC6
:103F0400FF00FF0000FFFF00FF0000FFFF00FF00B5
:103F140000FFFF00FF0000FFFF00FF0000FFFF00A5
:103F2400FF0000FFFF00FF0000FFFF00FF0000FF95
:103F3400FF00FF0000FFFF00FF0000FFFF00FF0085
:103F440000FFFF00FF0000FFFF00FF0000FFFF0075
:103F5400FF0000FFFF00FF0000FFFF00FF0000FF65
:103F6400FF00FF0000FFFF00FF0000FFFF00FF0055
:103F740000FFFF00FF0000FFFF00FF0000FFFF0045
:103F8400FF0000FFFF00FF0000FFFF00FF0000FF35
:103F9400FF00FF0000FFFF00FF0000FFFF00FF0025
:103FA40000FFFF00FF0000FFFF00FF0000FFFF0015
:103FB400FF0000FFFF00FF0000FFFF00FF0000FF05
:103FC400FF00FF0000FFFF00FF0000FFFF00FF00F5
:103FD40000FFFF00FF0000FFFF00FF0000FFFF00E5
:103FE400FF0000FFFF00FF0000FFFF00FF0000FFD5
:103FF400FF00FF0000FFFF00FF0000FFFF00FF00C5
:1040040000FFFF00FF0000FFFF00FF0000FFFF00B4
:10401400FF0000FFFF00FF0000FFFF00FF0000FFA4
:10402400FF00FF0000FFFF00FF0000FFFF00FF0094
:1040340000FFFF00FF0000FFFF00FF0000FFFF0084
:10404400FF0000FFFF00FF0000FFFF00FF0000FF74
:10405400FF00FF0000FFFF00FF0000FFFF00FF0064
:1040640000FFFF00FF0000FFFF00FF0000FFFF0054
:10407400FF0000FFFF00FF0000FFFF00FF0000FF44
:10408400FF00FF0000FFFF00FF0000FFFF00FF0034
:1040940000FFFF00FF0000FFFF00FF0000FFFF0024
:1040A400FF0000FFFF00FF0000FFFF00FF0000FF14
:1040B400FF00FF0000FFFF00FF0000FFFF00FF0004
:1040C40000FFFF00FF0000FFFF00FF0000FFFF00F4
:1040D400FF0000FFFF00FF0000FFFF00FF0000FFE4
:1040E400FF00FF0000FFFF00FF0000FFFF00FF00D4
:1040F40000FFFF00FF0000FFFF00FF0000FFFF00C4
:10410400FF0000FFFF00FF0000FFFF00FF0000FFB3
:10411400FF00FF0000FFFF00FF0000FFFF00FF00A3
:1041240000FFFF00FF0000FFFF00FF0000FFFF0093
:10413400FF0000FFFF00FF0000FFFF00FF0000FF83
:10414400FF00FF0000FFFF00FF0000FFFF00FF0073
:1041540000FFFF00FF0000FFFF00FF0000FFFF0063
:10416400FF0000FFFF00FF0000FFFF00FF0000FF53
:10417400FF00FF0000FFFF00FF0000FFFF00FF0043
:1041840000FFFF00FF0000FFFF00FF0000FFFF0033
:10419400FF0000FFFF00FF0000FFFF00FF0000FF23
:1041A400FF00FF0000FFFF00FF0000FFFF00FF0013
:1041B40000FFFF00FF0000FFFF00FF0000FFFF0003
:1041C400FF0000FFFF00FF0000FFFF00FF0000FFF3
:1041D400FF00FF0000FFFF00FF0000FFFF00FF00E3
:1041E40000FFFF00FF0000FFFF00FF0000FFFF00D3
:1041F400FF0000FFFF00FF0000FFFF00FF0000FFC3
:10420400FF00FF0000FFFF00FF0000FFFF00FF00B2
:1042140000FFFF00FF0000FFFF00FF0000FFFF00A2
:10422400FF0000FFFF00FF0000FFFF00FF0000FF92
:10423400FF00FF0000FFFF00FF0000FFFF00FF0082
:1042440000FFFF00FF0000FFFF00FF0000FFFF0072
:10425400FF0000FFFF00FF0000FFFF00FF0000FF62
:10426400FF00FF0000FFFF00FF0000FFFF00FF0052
:1042740000FFFF00FF0000FFFF00FF0000FFFF0042
:10428400FF0000FFFF00FF0000FFFF00FF0000FF32
:10429400FF00FF0000FFFF00FF0000FFFF00FF0022
:1042A40000FFFF00FF0000FFFF00FF0000FFFF0012
:1042B400FF0000FFFF00FF0000FFFF00FF0000FF02
:1042C400FF00FF0000FFFF00FF0000FFFF00FF00F2
:1042D40000FFFF00FF0000FFFF00FF0000FFFF00E2
:1042E400FF0000FFFF00FF0000FFFF00FF0000FFD2
:1042F400FF00FF0000FFFF00FF0000FFFF00FF00C2
:1043040000FFFF00FF0000FFFF00FF0000FFFF00B1
:10431400FF0000FFFF00FF0000FFFF00FF0000FFA1
:10432400FF00FF0000FFFF00FF0000FFFF00FF0091
:1043340000FFFF00FF0000FFFF00FF0000FFFF0081
:10434400FF0000FFFF00FF0000FFFF00FF0000FF71
:10435400FF00FF0000FFFF00FF0000FFFF00FF0061
:1043640000FFFF00FF0000FFFF00FF0000FFFF0051
:10437400FF0000FFFF00FF0000FFFF00FF0000FF41
:10438400FF00FF0000FFFF00FF0000FFFF00FF0031
:1043940000FFFF00FF0000FFFF00FF0000FFFF0021
:1043A400FF0000FFFF00FF0000FFFF00FF0000FF11
:1043B400FF00FF0000FFFF00FF0000FFFF00FF0001
:1043C40000FFFF00FF0000FFFF00FF0000FFFF00F1
:1043D400FF0000FFFF00FF0000FFFF00FF0000FFE1
:1043E400FF00FF0000FFFF00FF0000FFFF00FF00D1
:1043F40000FFFF00FF0000FFFF00FF0000FFFF00C1
:10440400FF0000FFFF00FF0000FFFF00FF0000FFB0
:10441400FF00FF0000FFFF00FF0000FFFF00FF00A0
:1044240000FFFF00FF0000FFFF00FF0000FFFF0090
:10443400FF0000FFFF00FF0000FFFF00FF0000FF80
:10444400FF00FF0000FFFF00FF0000FFFF00FF0070
:1044540000FFFF00FF0000FFFF00FF0000FFFF0060
:10446400FF0000FFFF00FF0000FFFF00FF0000FF50
:10447400FF00FF0000FFFF00FF0000FFFF00FF0040
:1044840000FFFF00FF0000FFFF00FF0000FFFF0030
:10449400FF0000FFFF00FF0000FFFF00FF0000FF20
:1044A400FF00FF0000FFFF00FF0000FFFF00FF0010
:1044B40000FFFF00FF0000FFFF00FF0000FFFF0000
:1044C400FF0000FFFF00FF0000FFFF00FF0000FFF0
:1044D400FF00FF0000FFFF00FF0000FFFF00FF00E0
:1044E40000FFFF00FF0000FFFF00FF0000FFFF00D0
:1044F400FF0000FFFF00FF0000FFFF00FF0000FFC0
:10450400FF00FF0000FFFF00FF0000FFFF00FF00AF
:1045140000FFFF00FF0000FFFF00FF0000FFFF009F
:10452400FF0000FFFF00FF0000FFFF00FF0000FF8F
:10453400FF00FF0000FFFF00FF0000FFFF00FF007F
:1045440000FFFF00FF0000FFFF00FF0000FFFF006F
:10455400FF0000FFFF00FF0000FFFF00FF0000FF5F
:10456400FF00FF0000FFFF00FF0000FFFF00FF004F
:1045740000FFFF00FF0000FFFF00FF0000FFFF003F
:10458400FF0000FFFF00FF0000FFFF00FF0000FF2F
:10459400FF00FF0000FFFF00FF0000FFFF00FF001F
:1045A40000FFFF00FF0000FFFF00FF0000FFFF000F
:1045B400FF0000FFFF00FF0000FFFF00FF0000FFFF
:1045C400FF00FF0000FFFF00FF0000FFFF00FF00EF
:1045D40000FFFF00FF0000FFFF00FF0000FFFF00DF
:1045E400FF0000FFFF00FF0000FFFF00FF0000FFCF
:1045F400FF00FF0000FFFF00FF0000FFFF00FF00BF
:1046040000FFFF00FF0000FFFF00FF0000FFFF00AE
:10461400FF0000FFFF00FF0000FFFF00FF0000FF9E
:10462400FF00FF0000FFFF00FF0000FFFF00FF008E
:1046340000FFFF00FF0000FFFF00FF0000FFFF007E
:10464400FF0000FFFF00FF0000FFFF00FF0000FF6E
:10465400FF00FF0000FFFF00FF0000FFFF00FF005E
:1046640000FFFF00FF0000FFFF00FF0000FFFF004E
:10467400FF0000FFFF00FF0000FFFF00FF0000FF3E
:10468400FF00FF0000FFFF00FF0000FFFF00FF002E
:1046940000FFFF00FF0000FFFF00FF0000FFFF001E
:1046A400FF0000FFFF00FF0000FFFF00FF0000FF0E
:1046B400FF00FF0000FFFF000000000000000000FA
:1046C40000FFFF00FF0000FFFF00FF0000FFFF00EE
:1046D400FF0000FFFF00FF0000FFFF00FF0000FFDE
:1046E400FF00FF0000FFFF00FF00000000000000CB
:1046F40000FF7F00000000FFFF00FF000005000036
:10470400000000000000000000461D000000000042
:104714000000000000FF7F00000000000000000017
:1047240000FFFF00FF000000000000000082800086
:10473400000000000000000000FFFF00FF00000078
:104744000000000000FFFF00FF0000000000000068
:1047540000FFFF00FF0000000000000000FFFF005A
:10476400FF00000000000000000100000000000045
:104774000000000000D7FC00FF0000000000000063
:1047840000777700000000000000000000FFFF0039
:10479400FF0000FFFF00FF0000FFFF00FF0000FF1D
:1047A400FF00FF0000FFFF00FF0000FFFF00FF000D
:1047B40000FFFF00FF0000FFFF00FF0000FFFF00FD
:1047C400FF0000FFFF00FF0000FFFF00FF0000FFED
:1047D400FF00FF0000FFFF00FF0000FFFF00FF00DD
:1047E40000FFFF00FF0000FFFF00FF0000FFFF00CD
:1047F400FF0000FFFF00FF0000FFFF00FF0000FFBD
:10480400FF00FF0000FFFF00FF0000FFFF00FF00AC
:1048140000FFFF00FF0000FFFF00FF0000FFFF009C
:10482400FF0000FFFF00FF0000FFFF00FF0000FF8C
:10483400FF00FF0000FFFF00FF0000FFFF00FF007C
:1048440000FFFF00FF0000FFFF00FF0000FFFF006C
:10485400FF0000FFFF00FF0000FFFF00FF0000FF5C
:10486400FF00FF0000FFFF00FF0000FFFF00FF004C
:1048740000FFFF00FF0000FFFF00FF0000FFFF003C
:10488400FF0000FFFF00FF0000FFFF00FF0000FF2C
:10489400FF00FF0000FFFF00FF0000FFFF00FF001C
:1048A40000FFFF00FF0000FFFF00FF0000FFFF000C
:1048B400FF0000FFFF00FF0000FFFF00FF0000FFFC
:1048C400FF00FF0000FFFF00FF0000FFFF00FF00EC
:1048D40000FFFF00FF0000FFFF00FF0000FFFF00DC
:1048E400FF0000FFFF00FF0000FFFF00FF0000FFCC
:1048F400FF00FF0000FFFF00FF0000FFFF00FF00BC
:1049040000FFFF00FF0000FFFF00FF0000FFFF00AB
:10491400FF0000FFFF00FF0000FFFF00FF0000FF9B
:10492400FF00FF0000FFFF00FF0000FFFF00FF008B
:1049340000FFFF00FF0000FFFF00FF0000FFFF007B
:10494400FF0000FFFF00FF0000FFFF00FF0000FF6B
:10495400FF00FF0000FFFF00FF0000FFFF00FF005B
:1049640000FFFF00FF0000FFFF00FF0000FFFF004B
:10497400FF0000FFFF00FF0000FFFF00FF0000FF3B
:10498400FF00FF0000FFFF00FF0000FFFF00FF002B
:1049940000FFFF00FF0000FFFF00FF0000FFFF001B
:1049A400FF0000FFFF00FF0000FFFF00FF0000000A
:1049B40000000000000007000A0D00000500080BBD
:1049C40000000600090C00000100031B008FD02624
:1049D4000EFF260E01880000000000200000E00207
:1049E4000032000120200288140007CA06070000D4
:1049F400E003003A800C2C01002002003700002064
:104A0400010020810F700100320F00070000200018
:104A140000E0020032000002000000F8C4020000BE
:104A2400000040DA0000FE2001210000E002003214
:104A3400002020900188000006A1028880047800EC
:104A440000EB1F0037E2844454A0B49905BAE28411
:104A54004454A0B49906BAE2844454A0B40006EBCA
:104A6400476FDEFD07B2AE0188636CE103003A0ACA
:104A7400D8010000EB0E0037606CE108003A004DED
:104A8400EB0A05E80200393420EC0AF0A08B05E9B2
:104A9400F9FF3E0400376168E10100320086EB0B48
:104AA400000719C7BA1905BA0E04E003003A0A0050
:104AB400E0DBFF3A000006FE07B2AE02888A047803
:104AC400F5FF370CD0A3E20F4D1C0039890278356D
:104AD4004DBA0A05E80200393420EC0AF0A08B052F
:104AE400E90F0032254DBA0A05E80200393420ECFA
:104AF4000AF0A08B05E90800320C00E0060032152C
:104B0400CDBA0A05E80200393420EC0AF0A08B057E
:104B1400E98984E854A0B40B00E0E2FF3A000006FF
:104B24009902BA055D788B05E9F7FF32C82ADE05DC
:104B34005D788B05E9F3FF320C00E0F1FF3219DDFB
:104B4400BAEEFF373600F8809FBE829FBE849FBEB8
:104B5400869FBE0400FA04A8A9001180100798A13A
:104B64001180010F781E00906400600000E00800CE
:104B74003A9E00900002200080600000E003003AAA
:104B8400F611A81D82A89F00371E009064006000E3
:104B940000E05F003A9E0090000220008060000068
:104BA400E05A0032F6D1BF6140600004E0330032C5
:104BB400F611A9F631A81E00780040784EF0B74EE1
:104BC400D0BF0080FBE20F50130032E20F5005000B
:104BD4003C0000E00A0032E10F500A00321E0037A8
:104BE400E60F50100032E90F50170032E30F50095E
:104BF4000032170037F338071500370839076F4CB0
:104C040007120037FD3807908F880F0037E01E2108
:104C1400908F880C00371C39071000BEC08F88D1D4
:104C24008F88801F21908F881A3907394307030022
:104C340037B94107908F88000000800326808F8851
:104C4400EC71EF1D82A85F0037F6D1BF62406000AF
:104C540004E01000321E00907000600000E00C00C0
:104C64003A818F80ECD1BF0080FB0080409E0078A9
:104C7400814078014878ECD1BF0040E8ECF1B71DE1
:104C840082A80E0037F6D1BF6240600004E008003D
:104C9400321E00907000600000E004003210C0B3C7
:104CA400F4F1B7F631A90200371D82A83D00373C64
:104CB40000371E00906400600000E01D00329E007A
:104CC400900002200080600000E018003A0000001C
:104CD4000000000000000000000000000000009040
:104CE4008F801040780080FB801188908F800000B6
:104CF400E8908F881D82A800000000118061006088
:104D04000000E0FCFF3A000000000000000000008A
:104D140000001B00371E00906400600000E01700D4
:104D2400329E00900002200080600000E0120032F9
:104D34009E00900000280080600000E00D003A9082
:104D44008F801040780080FB801188908F80000055
:104D5400E8908F881D82A800000000118061006027
:104D64000000E0FCFF3A0080FA4F03BE4F02BE4F42
:104D740001BE4F00BE3600F90040063600F8809FA1
:104D8400BE829FBE849FBE869FBE0200FA008080C2
:104D940021128081407802192300004101487800E3
:104DA40080800000E8008088018080F07F20808F70
:104DB400500100360030EF018080108080808F50D9
:104DC40008003A1080800000E8108088118080F08C
:104DD4007F20808F500100360230EF10C0B354247E
:104DE40007000F789E007880A5200080405001BE07
:104DF4004000BE0000786100600040780004E016C6
:104E040000329E007800A5200080403002BE2003BE
:104E1400BE1000200100206011B800007281807271
:104E24000201738381739E027804A52004824200E8
:104E34009ABE0292BE9E0078F0A42000804011C069
:104E4400B30148780168A90080FA4F03BE4F02BE3F
:104E54004F01BE4F00BE3600F90040063600F88010
:104E64009FBE829FBE849FBE869FBE881F7800001F
:104E7400FA60808061138081407802A123000041A0
:104E84000148786080800000E8608088618080F05C
:104E94003F20808F500100360C30EF61808070809D
:104EA40080808F5008003A7080800000E87080880D
:104EB400718080F03F20808F500100360E30EF204B
:104EC400C0B308240700047820C0B305240701A553
:104ED400200100403002BE2003BE1000200100204B
:104EE4006011B800007281807202017383817304BF
:104EF400A520040244009ABE0292BE20C0B3F4234B
:104F040007F1A42001004011C0B30148780368A947
:104F14000080FA4F04784F03BE4F02BE4F01BE4FCC
:104F240000BE3600F90040063600F8809FBE829F1E
:104F3400BE849FBE869FBE881F780000FAC0808012
:104F440061788081407802E923000041014878C0FB
:104F540080800000E8C08088C18080F03F20808F7E
:104F6400500100361830EFC18080D08080808F508F
:104F740008003AD080800000E8D08088D18080F09A
:104F84003F20808F500100361A30EF30C0B3C42365
:104F94000700047830C0B3C1230701A520010040F5
:104FA4003002BE2003BE1000200100206011B800B2
:104FB400007281807202017383817304A52004024C
:104FC40044009ABE0292BE30C0B3B02307F1A420BD
:104FD40001004011C0B30148780728A90080FA4FA6
:104FE40004784F03BE4F02BE4F01BE4F00BE3600D1
:104FF400F90040063600F8809FBE829FBE849FBEA3
:10500400869FBE0000FA518080408080808F5014BB
:1050140000320188A900000050808001992300809B
:105024004010407880407810C0B3AB2B070004E0F8
:10503400F7FF325080800000E8508088518080F073
:105044000720808F500300360A30EF0100370188B3
:10505400A90080FA4F03BE4F02BE4F01BE4F00BEEF
:105064003600F90040063600F8809FBE829FBE8459
:105074009FBE869FBE0000FAB18080A08080808F92
:10508400501400320388A9000000B0808001E1239D
:1050940000804010407880407820C0B3852B070002
:1050A40004E0F7FF32B080800000E8B08088B1806F
:1050B40080F00720808F500300361630EF01003750
:1050C4000388A90080FA4F03BE4F02BE4F01BE4FB2
:1050D40000BE3600F90040063600F8809FBE829F6D
:1050E400BE849FBE869FBE0000FA1181800081802D
:1050F400808F501400320748A900000010818001FD
:10510400292400804010407880407830C0B35F2B61
:10511400070004E0F7FF321081800000E810818866
:10512400118180F00720808F500300362230EF0178
:1051340000370748A90080FA4F03BE4F02BE4F0153
:10514400BE4F00BE3600F90040063600F8809FBE10
:10515400829FBE849FBE869FBE0200FA300807006D
:105164000F788160801E007831989810C0B310F2D7
:10517400B70BA8A90080FA4F03BE4F02BE4F01BE71
:105184004F00BE3600F90040063600F8809FBE820C
:105194009FBE849FBE869FBE0200FA1B0807000FB5
:1051A40078D160801E007831809810C0B310F2B7B7
:1051B4000C48A90080FA4F03BE4F02BE4F01BE4FF8
:1051C40000BE3600F90040063600F8809FBE829F7C
:1051D400BE849FBE869FBE0200FA060807000F78B1
:1051E4000161801E007831B09810C0B310F2B70C82
:1051F400A8A90080FA4F03BE4F02BE4F01BE4F0064
:10520400BE3600F90040063600F8809FBE829FBE7D
:10521400849FBE869FBE0200FAF10707000F781133
:1052240061801E007831089910C0B310F2B70CC821
:10523400A90080FA4F03BE4F02BE4F01BE4F00BE0D
:105244003600F90040063600F8809FBE829FBE8477
:105254009FBE869FBE0200FADC0707000F7821611B
:10526400801E007831109810C0B310F2B70CE8A972
:105274000080FA4F03BE4F02BE4F01BE4F00BE3640
:1052840000F90040063600F8809FBE829FBE849FCE
:10529400BE869FBE0200FACB0707000F78316180FB
:1052A4001E007831089910C0B310F2B70D08A90098
:1052B40080FA4F03BE4F02BE4F01BE4F00BE360000
:1052C400F90040063600F8809FBE829FBE849FBED0
:1052D400869FBE0200FAB60707000F784161801E60
:1052E400007831B09810C0B310F2B70D28A900802F
:1052F400FA4F03BE4F02BE4F01BE4F00BE3600F947
:105304000040063600F8809FBE829FBE849FBE8602
:105314009FBE0200FAA10707000F785161801E00AA
:105324007831809810C0B310F2B70D48A90080FA04
:105334004F03BE4F02BE4F01BE4F00BE3600F90000
:1053440040063600F8809FBE829FBE849FBE869F23
:10535400BE0200FA880707000F786161801E00789A
:1053640031289810C0B310F2B70D68A90080FA4F25
:1053740003BE4F02BE4F01BE4F00BE3600F90040CF
:10538400063600F8809FBE829FBE849FBE869FBE65
:105394000200FA770707000F787161801E007831E8
:1053A400989810C0B310F2B70D88A90080FA4F0383
:1053B400BE4F02BE4F01BE4F00BE3600F90040068C
:1053C4003600F8809FBE829FBE849FBE869FBE0229
:1053D40000FA620707000F788161801E007831109F
:1053E4009810C0B310F2B70DA8A90080FA4F03BEFD
:1053F4004F02BE4F01BE4F00BE3600F900400636D4
:1054040000F8809FBE829FBE849FBE869FBE02001E
:10541400FA4D0707000F789161801E0078312898B3
:1054240010C0B310F2B70DC8A90080FA4F03BE4FE5
:1054340002BE4F01BE4F00BE3600F9004006000018
:10544400FA0B68A90080FA0040060000FA0468A973
:105454000080FA0040063600F8809FBE829FBE841A
:105464009FBE869FBE0200FA4AD0BF0004E0060039
:1054740032DA6AA9616080010F784A70EFD80AA80D
:10548400010037C239070248A90080FA4F03BE4F12
:1054940002BE4F01BE4F00BE3600F9004006801F19
:1054A400780000FA408C26905688E0C820A05688E0
:1054B400209080B056880108A90080FA4F00780037
:1054C40040063600F8809FBE829FBE849FBE869FA2
:1054D400BE0000FA02D2BF0004E011003200908046
:1054E4008000408049260080401000780000E00AD7
:1054F40000320090808000408049260080401000E7
:10550400781647070090800000E80090880500376F
:105514000032EF2308A92108A95447070308A9006A
:1055240080FA4F03BE4F02BE4F01BE4F00BE36008D
:10553400F9004006809FBE0000FA31568000022028
:105544000080600000E0030032C40AA910C0B30A5E
:10555400F2B70088A90080FA4F00BE00400636006A
:10556400F8809FBE829FBE849FBE869FBE0400FAC1
:10557400B07080808188162EEF2070809081882EF4
:1055840070EFA300378181802ED0BF0080FB00081C
:10559400DE6100600040780004E09800322ED0BF45
:1055A40080407840E020E22107000F782ED0BF80B1
:1055B400407840E0204322072047981E00780000EE
:1055C400E08B00329181802ED0BF0080FB0008DE8A
:1055D4006100600040780004E04200329E00788060
:1055E400A5200080403002BE2003BE200020010020
:1055F400206011B8000062818062020163838163CC
:10560400E00F50E08F58E00F59E08F597200329E3E
:10561400007820A6200080409000782E40900080E2
:10562400FB0000E90008DE6100600040780004E04F
:105634006600329E007800A6200080409000782EFC
:1056440040900080FB0000E91200200010DD810082
:10565400701E017800A6200000410108789E0078A1
:1056640000A5200080403002BE2003BE200020019F
:1056740000206011B800007281807202017383817E
:10568400739E027804A520048242009ABE0292BE50
:105694009E0078F0A42000804011C0B301487841F6
:1056A40000379E007880A5200080403002BE200391
:1056B400BE4000200100206011B8000062818062B9
:1056C400020163838163E00F50E08F58E00F59E0DB
:1056D4008F593000329E007860A6200080409000F0
:1056E400782E40900080FB0000E90008DE61006035
:1056F4000040780004E02400329E007840A6200098
:1057040080409000782E40900080FB0000E9120059
:10571400200010DD8100701E017840A620000041A9
:105724000108789E007800A5200080403002BE2049
:1057340003BE4000200100206011B8000072818087
:10574400720201738381739E027804A5200482424D
:10575400009ABE0292BE9E0078F0A4200080401100
:10576400C0B30148782ED0BF0040E82EF0B72ED049
:10577400BFEF4F505AFF360048A90080FA4F03BECE
:105784004F02BE4F01BE4F00BE3600F90040063640
:1057940000F8809FBE829FBE849FBE869FBE040089
:1057A400FA907180B08188322EEF007180C08188B8
:1057B4003470EFA30037B1818034D0BF0080FB0088
:1057C40008DE6100600040780004E098003234D0C4
:1057D400BF80407800E220272107000F7834D0BF33
:1057E40080407800E2208821072047981E00780036
:1057F40000E08B0032C1818034D0BF0080FB000800
:10580400DE6100600040780004E04200329E0078CF
:1058140080A5200080403002BE2003BE200020016D
:1058240000206011B80000628180620201638381FC
:1058340063E00F50E08F58E00F59E08F5972003247
:105844009E007820A6200080409000782E40900092
:1058540080FB0000E90008DE61006000407800047D
:10586400E06600329E007800A62000804090007818
:105874002E40900080FB0000E91200200010DD8122
:1058840000701E017800A6200000410108789E00E7
:105894007800A5200080403002BE2003BE200020F6
:1058A4000100206011B800007281807202017383CC
:1058B40081739E027804A520048242009ABE02925B
:1058C400BE9E0078F0A42000804011C0B301487847
:1058D4004100379E007880A5200080403002BE2021
:1058E40003BE4000200100206011B80000628180E6
:1058F40062020163838163E00F50E08F58E00F5927
:10590400E08F593000329E007860A62000804090DD
:1059140000782E40900080FB0000E90008DE610062
:10592400600040780004E02400329E007840A62005
:105934000080409000782E40900080FB0000E91227
:1059440000200010DD8100701E017840A6200000B8
:10595400410108789E007800A5200080403002BEF6
:105964002003BE4000200100206011B800007281B5
:1059740080720201738381739E027804A5200482DD
:1059840042009ABE0292BE9E0078F0A4200080409D
:1059940011C0B301487834D0BF0040E834F0B734C4
:1059A400D0BFEF4F505AFF360068A90080FA4F036A
:1059B400BE4F02BE4F01BE4F00BE3600F900400686
:1059C4003600F8809FBE829FBE849FBE869FBE0421
:1059D40000FA707280E081884E2EEFE07180F081D1
:1059E400883A70EFA30037E181803AD0BF0080FB92
:1059F4000008DE6100600040780004E09800323A5C
:105A0400D0BF804078C0E3206C2007000F783AD0E4
:105A1400BF804078C0E320CD20072047981E00783F
:105A24000000E08B0032F181803AD0BF0080FB009F
:105A340008DE6100600040780004E04200329E000D
:105A44007880A5200080403002BE2003BE200020C4
:105A54000100206011B8000062818062020163834A
:105A64008163E00F50E08F58E00F59E08F597200C6
:105A7400329E007820A6200080409000782E40902E
:105A84000080FB0000E90008DE610060004078004F
:105A940004E06600329E007800A62000804090005A
:105AA400782E40900080FB0000E91200200010DDF9
:105AB4008100701E017800A6200000410108789E34
:105AC400007800A5200080403002BE2003BE2000E4
